:100000000C942A000C94D50A0C94080B0C943B0B0E
:100010000C9459140C9426140C9447000C94C0139F
:100020000C94F3130C948D130C945A130C94271303
:100030000C9447000C9447000C9447000C94470024
:100040000C9447000C9447000C9447000C94470014
:100050000C94470011241FBECFE5D8E0DEBFCDBF12
:1000600010E0A0E6B0E0ECE3FAE302C005900D92E8
:10007000A437B107D9F710E0A4E7B0E001C01D92A2
:10008000AD38B107E1F70E94EC1B0C941C1D0C94D9
:100090000000EF92FF920F931F937B018C0120E0F1
:1000A00030E040E05FE40E94490388238CF0C801FF
:1000B000B70120E030E040E05FE40E94C1010E940F
:1000C000A9039B01AC01205030404040504806C07D
:1000D000C801B7010E94A9039B01AC01B901CA0183
:1000E0001F910F91FF90EF900895A0E0B0E0EBE733
:1000F000F0E00C94E51CDC012B01FA019C9192309C
:1001000008F439C1EB018881823008F433C194309E
:1001100069F4843009F02FC111969C91119789815F
:10012000981709F428C1ACE6B0E025C1843009F481
:1001300021C18230A9F4923009F01DC19A01AD01AC
:1001400088E0EA010990AE01E90109929E0181501F
:10015000C1F7E201898111969C918923818308C1AD
:10016000923009F407C112962D903C901397EB0141
:100170008A819B811496AD90BD90CD90DC901797AD
:10018000EC80FD800E811F819101281B390BB90184
:1001900037FF04C066277727621B730B6032710537
:1001A0000CF061C0121613066CF537014801062EDB
:1001B00004C096948794779467940A94D2F721E0C8
:1001C00030E040E050E004C0220F331F441F551FB1
:1001D0006A95D2F721503040404050402E213F21B7
:1001E00040235123211531054105510521F021E01E
:1001F00030E040E050E079018A01E628F72808293C
:1002000019293CC0232BD1F1260E371E350146019A
:10021000062E04C096948794779467940A94D2F734
:1002200021E030E040E050E004C0220F331F441FC3
:10023000551F6A95D2F721503040404050402A2146
:100240003B214C215D21211531054105510521F04E
:1002500021E030E040E050E059016A01A628B728CB
:10026000C828D9280BC0821593052CF01C01AA249C
:10027000BB24650103C0EE24FF24870111969C91E5
:10028000D20111968C91981709F445C0992339F041
:10029000A80197012A193B094C095D0906C0A6016E
:1002A00095012E193F09400B510B57FD08C01182D3
:1002B0003382228224833583468357831DC081E0A5
:1002C00081833382228288279927DC01821B930B4A
:1002D000A40BB50B84839583A683B7830DC0220F2F
:1002E000331F441F551F24833583468357838281E0
:1002F000938101979383828324813581468157813D
:10030000DA01C9010197A109B1098F5F9F4FAF4F72
:10031000BF4328F30BC0918333822282EA0CFB1C7B
:100320000C1D1D1DE482F5820683178383E0808304
:10033000248135814681578157FF1AC0C901AA27F8
:1003400097FDA095BA2F81709070A070B0705695EF
:10035000479537952795822B932BA42BB52B848318
:100360009583A683B7838281938101969383828349
:10037000DF0101C0D201CD01CDB7DEB7E2E10C94BF
:10038000011DA0E2B0E0E7ECF1E00C94F11C698300
:100390007A838B839C832D833E834F835887E9E048
:1003A000EE2EF12CEC0EFD1ECE010196B7010E943F
:1003B000D2048E010F5E1F4FCE010596B8010E9438
:1003C000D2048A8991E089278A8BC701B801AE01DE
:1003D000475E5F4F0E9475000E94FD03A096E6E015
:1003E0000C940D1DA0E2B0E0E8EFF1E00C94F11CDC
:1003F00069837A838B839C832D833E834F835887C5
:10040000F9E0EF2EF12CEC0EFD1ECE010196B701A6
:100410000E94D2048E010F5E1F4FCE010596B801D7
:100420000E94D204C701B801AE01475E5F4F0E942F
:1004300075000E94FD03A096E6E00C940D1DA0E25D
:10044000B0E0E5E2F2E00C94E51C69837A838B83EB
:100450009C832D833E834F835887CE010196BE0136
:10046000675F7F4F0E94D204CE010596BE016F5E8A
:100470007F4F0E94D2049985923088F0898982301A
:10048000C8F0943019F4823051F404C0843029F457
:10049000923081F48CE690E0C6C0923049F420E0BE
:1004A0009A858A89981321E02A87CE010996BBC0D4
:1004B000823049F420E09A858A89981321E02A8BBA
:1004C000CE014196B0C02D843E844F8458886D88FB
:1004D0007E888F88988CEE24FF248701AA24BB2471
:1004E000650140E050E060E070E0E0E0F0E0C10174
:1004F00081709070892BE9F0E60CF71C081D191D1E
:100500009A01AB012A0D3B1D4C1D5D1D80E090E062
:10051000A0E0B0E0E614F7040805190520F481E036
:1005200090E0A0E0B0E0BA01A901480F591F6A1F8E
:100530007B1FAA0CBB1CCC1CDD1C97FE08C081E0F5
:1005400090E0A0E0B0E0A82AB92ACA2ADB2A3196B6
:10055000E032F10549F0660C771C881C991C569412
:10056000479437942794C3CFFA85EA892B893C892D
:100570008B859C85280F391F2E5F3F4F17C0CA01FE
:1005800081709070892B61F016950795F794E79428
:1005900080E090E0A0E0B0E8E82AF92A0A2B1B2BC3
:1005A00076956795579547952F5F3F4F77FDE7CF36
:1005B0000CC0440F551F661F771F17FD4160EE0CDE
:1005C000FF1C001F111F21503040403090E05907A0
:1005D00090E0690790E4790760F32B8F3C8FDB0193
:1005E000CA018F779070A070B07080349105A1051A
:1005F000B10561F447FD0AC0E114F10401051105DC
:1006000029F0405C5F4F6F4F7F4F40781A8EFE1786
:1006100011F081E08A8F4D8F5E8F6F8F78A383E01A
:10062000898FCE0149960E94FD03A096E2E10C94C9
:10063000011DA8E1B0E0EFE1F3E00C94F11C698347
:100640007A838B839C832D833E834F83588789E0F5
:10065000E82EF12CEC0EFD1ECE010196B7010E9492
:10066000D2048E010F5E1F4FCE010596B8010E9485
:10067000D2048985823040F08989823028F0C70110
:10068000B8010E944A0501C08FEF6896E6E00C941D
:100690000D1DA8E1B0E0EFE4F3E00C94F11C6983D8
:1006A0007A838B839C832D833E834F83588789E095
:1006B000E82EF12CEC0EFD1ECE010196B7010E9432
:1006C000D2048E010F5E1F4FCE010596B8010E9425
:1006D000D2048985823040F08989823028F0C701B0
:1006E000B8010E944A0501C08FEF6896E6E00C94BD
:1006F0000D1DA8E1B0E0EFE7F3E00C94F11C698375
:100700007A838B839C832D833E834F83588789E034
:10071000E82EF12CEC0EFD1ECE010196B7010E94D1
:10072000D2048E010F5E1F4FCE010596B8010E94C4
:10073000D2048985823040F08989823028F0C7014F
:10074000B8010E944A0501C081E06896E6E00C9479
:100750000D1DACE0B0E0EFEAF3E00C94F51C69830A
:100760007A838B839C83CE010196BE016B5F7F4FA2
:100770000E94D2048D81823061F1823050F1843048
:1007800021F48E81882351F12EC02F81388537FDC9
:1007900020C06E812F3131051CF06623F9F023C093
:1007A0008EE190E0821B930B29853A854B855C8511
:1007B00004C056954795379527958A95D2F76623B5
:1007C000B1F050954095309521953F4F4F4F5F4F79
:1007D0000EC020E030E040E050E009C02FEF3FEFD6
:1007E0004FEF5FE704C020E030E040E050E8B9019F
:1007F000CA012C96E2E00C94111DDF92EF92FF9259
:100800000F931F93FC01E480F58006811781D1804E
:100810008081823048F480E090E0A0E1B0E0E82AF6
:10082000F92A0A2B1B2BA5C0843009F49FC0823003
:1008300021F4EE24FF24870105C0E114F104010531
:10084000110519F4E0E0F0E096C0628173819FEF3A
:10085000623879070CF05BC022E83FEF261B370BAC
:100860002A3131052CF020E030E040E050E02AC091
:10087000B801A701022E04C0769567955795479554
:100880000A94D2F781E090E0A0E0B0E004C0880FC5
:10089000991FAA1FBB1F2A95D2F70197A109B10979
:1008A0008E219F21A023B1230097A105B10521F03E
:1008B00081E090E0A0E0B0E09A01AB01282B392B59
:1008C0004A2B5B2BDA01C9018F779070A070B07052
:1008D00080349105A105B10539F427FF09C0205CDA
:1008E0003F4F4F4F5F4F04C0215C3F4F4F4F5F4F13
:1008F000E0E0F0E02030A0E03A07A0E04A07A0E402
:100900005A0710F0E1E0F0E079018A0127C0603871
:10091000710564F5FB01E158FF4FD801C7018F77DE
:100920009070A070B07080349105A105B10539F4C4
:10093000E7FE0DC080E490E0A0E0B0E004C08FE3EB
:1009400090E0A0E0B0E0E80EF91E0A1F1B1F17FFA1
:1009500005C016950795F794E794319687E01695AC
:100960000795F794E7948A95D1F705C0EE24FF2404
:100970008701EFEFF0E06E2F679566276795902F60
:100980009F77D794DD24D7948E2F8695492F462BB9
:10099000582F5D29B701CA011F910F91FF90EF9069
:1009A000DF900895FC01DB01408151812281622F9B
:1009B0006F7770E0221F2227221F9381892F880FD3
:1009C000822B282F30E0991F9927991F11969C930D
:1009D000119721153105A9F54115510561057105DD
:1009E00011F482E037C082E89FEF13969C938E93B8
:1009F00012979A01AB0167E0220F331F441F551F66
:100A00006A95D1F783E08C930DC0220F331F441FEA
:100A1000551F12968D919C911397019713969C9355
:100A20008E931297203080E0380780E0480780E4FA
:100A3000580758F314962D933D934D935C93179755
:100A400008952F3F310579F4411551056105710570
:100A500019F484E08C93089564FF03C081E08C93C3
:100A600012C01C9210C02F57304013963C932E9307
:100A7000129783E08C9387E0440F551F661F771F02
:100A80008A95D1F7706414964D935D936D937C9322
:100A9000179708951F93DC01FB019C91923008F495
:100AA00047C08081823008F443C0943051F41196DD
:100AB0001C91843099F58181682F70E0611B710968
:100AC0003FC0843021F0923031F48230B9F181811D
:100AD000882389F12DC011961C9111978230F1F075
:100AE00081811817D9F412962D913C911397828128
:100AF00093818217930794F028173907BCF0149656
:100B00008D919D910D90BC91A02D248135814681C0
:100B10005781281739074A075B0718F4112341F05A
:100B20000AC082179307A407B50740F4112319F0F0
:100B300061E070E005C06FEF7FEF02C060E070E041
:100B4000CB011F910895DF93CF9300D000D00F9277
:100B5000CDB7DEB78A836B8381E089838A81282FB2
:100B600030E03D832C838C819D8181309105D1F0D3
:100B70002C813D81223031052CF48C819D810097A0
:100B800061F01FC02C813D812230310581F08C81C4
:100B90009D818330910581F014C0EAE3F0E08B8100
:100BA000808310C0E7E3F0E08B8180830BC0E4E337
:100BB000F0E08B81808306C0E1E3F0E08B818083ED
:100BC00001C0198289810F900F900F900F900F90A4
:100BD000CF91DF910895DF93CF9300D000D00F9293
:100BE000CDB7DEB78A836B8381E089838A81282F22
:100BF00030E03D832C838C819D8181309105D1F043
:100C00002C813D81223031052CF48C819D8100970F
:100C100061F01FC02C813D812230310581F08C8133
:100C20009D818330910581F014C0EBE3F0E08B816E
:100C3000808310C0E8E3F0E08B8180830BC0E5E3A4
:100C4000F0E08B81808306C0E2E3F0E08B8180835B
:100C500001C0198289810F900F900F900F900F9013
:100C6000CF91DF910895DF93CF93CDB7DEB72E9765
:100C70000FB6F894DEBF0FBECDBF8A836B834C8363
:100C800081E089838B81883008F00AC28A81282F0D
:100C900030E03E872D878D859E858130910509F452
:100CA00091C02D853E85223031052CF48D859E85A1
:100CB000009771F0F6C12D853E852230310509F48B
:100CC000FBC08D859E858330910509F46FC1E9C114
:100CD0008C81282F30E03C872B878B859C85813049
:100CE0009105F9F02B853C852230310509F440C08F
:100CF0008B859C85009709F063C0AAE3B0E0EAE326
:100D0000F0E08081482F8B81282F30E081E090E057
:100D1000022E02C0880F991F0A94E2F7842B8C934D
:100D2000C0C1AAE3B0E0EAE3F0E08081482F8B8104
:100D3000282F30E081E090E002C0880F991F2A95AB
:100D4000E2F7809584238C93ABE3B0E0EBE3F0E033
:100D50008081482F8B81282F30E081E090E0022EA7
:100D600002C0880F991F0A94E2F7842B8C9399C1D3
:100D7000AAE3B0E0EAE3F0E08081482F8B81282FDE
:100D800030E081E090E002C0880F991F2A95E2F7D9
:100D9000809584238C93ABE3B0E0EBE3F0E08081BB
:100DA000482F8B81282F30E081E090E0022E02C096
:100DB000880F991F0A94E2F7809584238C9371C160
:100DC00019826FC18C81282F30E03A872987898565
:100DD0009A8581309105F9F029853A8522303105CF
:100DE00009F440C089859A85009709F063C0A7E39C
:100DF000B0E0E7E3F0E08081482F8B81282F30E0DE
:100E000081E090E0022E02C0880F991F0A94E2F759
:100E1000842B8C9346C1A7E3B0E0E7E3F0E0808148
:100E2000482F8B81282F30E081E090E002C0880FAE
:100E3000991F2A95E2F7809584238C93A8E3B0E06C
:100E4000E8E3F0E08081482F8B81282F30E081E0BB
:100E500090E0022E02C0880F991F0A94E2F7842BBB
:100E60008C931FC1A7E3B0E0E7E3F0E08081482F57
:100E70008B81282F30E081E090E002C0880F991F1D
:100E80002A95E2F7809584238C93A8E3B0E0E8E309
:100E9000F0E08081482F8B81282F30E081E090E0C6
:100EA000022E02C0880F991F0A94E2F780958423CE
:100EB0008C93F7C01982F5C08C81282F30E03887D9
:100EC0002F838F81988581309105F9F02F813885A6
:100ED0002230310509F440C08F819885009709F0D0
:100EE00063C0A4E3B0E0E4E3F0E08081482F8B81AD
:100EF000282F30E081E090E0022E02C0880F991F79
:100F00000A94E2F7842B8C93CCC0A4E3B0E0E4E332
:100F1000F0E08081482F8B81282F30E081E090E045
:100F200002C0880F991F2A95E2F7809584238C933D
:100F3000A5E3B0E0E5E3F0E08081482F8B81282F26
:100F400030E081E090E0022E02C0880F991F0A94E1
:100F5000E2F7842B8C93A5C0A4E3B0E0E4E3F0E0D7
:100F60008081482F8B81282F30E081E090E002C003
:100F7000880F991F2A95E2F7809584238C93A5E327
:100F8000B0E0E5E3F0E08081482F8B81282F30E04E
:100F900081E090E0022E02C0880F991F0A94E2F7C8
:100FA000809584238C937DC019827BC08C81282FEF
:100FB00030E03E832D838D819E8181309105F9F053
:100FC0002D813E812230310509F440C08D819E8102
:100FD000009709F063C0A1E3B0E0E1E3F0E08081B5
:100FE000482F8B81282F30E081E090E0022E02C054
:100FF000880F991F0A94E2F7842B8C9352C0A1E3C7
:10100000B0E0E1E3F0E08081482F8B81282F30E0D1
:1010100081E090E002C0880F991F2A95E2F7809541
:1010200084238C93A2E3B0E0E2E3F0E08081482FD8
:101030008B81282F30E081E090E0022E02C0880FE3
:10104000991F0A94E2F7842B8C932BC0A1E3B0E0A4
:10105000E1E3F0E08081482F8B81282F30E081E0B0
:1010600090E002C0880F991F2A95E2F780958423AB
:101070008C93A2E3B0E0E2E3F0E08081482F8B8123
:10108000282F30E081E090E0022E02C0880F991FE7
:101090000A94E2F7809584238C9303C0198201C0DF
:1010A000198289812E960FB6F894DEBF0FBECDBF90
:1010B000CF91DF910895DF93CF93CDB7DEB72E9711
:1010C0000FB6F894DEBF0FBECDBF8A836B834C830F
:1010D00081E089838B81883008F006C18A81282FBE
:1010E00030E03E872D878D859E858130910509F4FE
:1010F00050C02D853E85223031052CF48D859E858E
:10110000009771F0F2C02D853E852230310509F43B
:1011100079C08D859E858330910509F4ACC0E5C00A
:101120008C81282F30E03C872B878B859C8500970E
:10113000C9F02B853C852130310549F5ABE3B0E0A2
:10114000EBE3F0E08081482F8B81282F30E081E0B5
:1011500090E0022E02C0880F991F0A94E2F7842BB8
:101160008C93C3C0ABE3B0E0EBE3F0E08081482FA9
:101170008B81282F30E081E090E0022E02C0880FA2
:10118000991F0A94E2F7809584238C93AEC019824C
:10119000ACC08C81282F30E03A87298789859A85D1
:1011A0000097C9F029853A852130310549F5A8E332
:1011B000B0E0E8E3F0E08081482F8B81282F30E019
:1011C00081E090E0022E02C0880F991F0A94E2F796
:1011D000842B8C938AC0A8E3B0E0E8E3F0E0808140
:1011E000482F8B81282F30E081E090E0022E02C052
:1011F000880F991F0A94E2F7809584238C9375C019
:10120000198273C08C81282F30E038872F838F811B
:1012100098850097C9F02F8138852130310549F52F
:10122000A5E3B0E0E5E3F0E08081482F8B81282F33
:1012300030E081E090E0022E02C0880F991F0A94EE
:10124000E2F7842B8C9351C0A5E3B0E0E5E3F0E036
:101250008081482F8B81282F30E081E090E0022EA2
:1012600002C0880F991F0A94E2F7809584238C931B
:101270003CC019823AC08C81282F30E03E832D83F8
:101280008D819E810097C9F02D813E8121303105ED
:1012900049F5A2E3B0E0E2E3F0E08081482F8B81E2
:1012A000282F30E081E090E0022E02C0880F991FC5
:1012B0000A94E2F7842B8C9318C0A2E3B0E0E2E337
:1012C000F0E08081482F8B81282F30E081E090E092
:1012D000022E02C0880F991F0A94E2F7809584239A
:1012E0008C9303C0198201C0198289812E960FB692
:1012F000F894DEBF0FBECDBFCF91DF910895DF938D
:10130000CF93CDB7DEB727970FB6F894DEBF0FBEE9
:10131000CDBF8A836B835D834C8381E089838B811E
:10132000883010F0198272C08A81282F30E03F8304
:101330002E834E815F814130510559F18E819F810D
:101340008230910534F42E813F812115310569F0F9
:101350005CC04E815F814230510579F18E819F8161
:101360008330910509F43DC050C0E9E3F0E080818D
:10137000282F30E08B81882F90E0A90102C055957D
:1013800047958A95E2F7CA018170EC81FD818083DF
:101390003DC0E6E3F0E08081282F30E08B81882F8C
:1013A00090E0A90102C0559547958A95E2F7CA01D8
:1013B0008170EC81FD81808329C0E3E3F0E08081CE
:1013C000282F30E08B81882F90E0A90102C055952D
:1013D00047958A95E2F7CA018170EC81FD8180838F
:1013E00015C0E0E3F0E08081282F30E08B81882F6A
:1013F00090E0A90102C0559547958A95E2F7CA0188
:101400008170EC81FD81808301C0198289812796DA
:101410000FB6F894DEBF0FBECDBFCF91DF91089518
:10142000DF93CF9300D000D00F92CDB7DEB78A8381
:101430006B8319828A81282F30E03D832C834C8175
:101440005D814130510509F43CC08C819D81823021
:10145000910534F42C813D812115310571F09CC03A
:101460004C815D814230510509F44FC08C819D81D2
:101470008330910509F46DC08FC0ABE3B0E0EBE3BE
:10148000F0E08081482F8B81282F30E081E090E0D0
:1014900002C0880F991F2A95E2F784278C93E9E30D
:1014A000F0E08081282F30E08B81882F90E0A90127
:1014B00002C0559547958A95E2F7CA0181708983E4
:1014C0006BC0A8E3B0E0E8E3F0E08081482F8B81B7
:1014D000282F30E081E090E002C0880F991F2A9504
:1014E000E2F784278C93E6E3F0E08081282F30E058
:1014F0008B81882F90E0A90102C0559547958A9568
:10150000E2F7CA018170898347C0A5E3B0E0E5E353
:10151000F0E08081482F8B81282F30E081E090E03F
:1015200002C0880F991F2A95E2F784278C93E3E382
:10153000F0E08081282F30E08B81882F90E0A90196
:1015400002C0559547958A95E2F7CA018170898353
:1015500023C0A2E3B0E0E2E3F0E08081482F8B817A
:10156000282F30E081E090E002C0880F991F2A9573
:10157000E2F784278C93E0E3F0E08081282F30E0CD
:101580008B81882F90E0A90102C0559547958A95D7
:10159000E2F7CA018170898389810F900F900F90C3
:1015A0000F900F90CF91DF9108951F920F920FB679
:1015B0000F9211242F933F934F935F936F937F93D9
:1015C0008F939F93AF93BF93EF93FF93DF93CF934B
:1015D000CDB7DEB78091740090917500009729F027
:1015E000E0917400F09175000995CF91DF91FF9122
:1015F000EF91BF91AF919F918F917F916F915F918B
:101600004F913F912F910F900FBE0F901F90189503
:101610001F920F920FB60F9211242F933F934F9367
:101620005F936F937F938F939F93AF93BF93EF934A
:10163000FF93DF93CF93CDB7DEB780917600909183
:101640007700009729F0E0917600F09177000995F6
:10165000CF91DF91FF91EF91BF91AF919F918F91CA
:101660007F916F915F914F913F912F910F900FBE9E
:101670000F901F9018951F920F920FB60F92112482
:101680002F933F934F935F936F937F938F939F938A
:10169000AF93BF93EF93FF93DF93CF93CDB7DEB7B5
:1016A0008091780090917900009729F0E09178007E
:1016B000F09179000995CF91DF91FF91EF91BF9162
:1016C000AF919F918F917F916F915F914F913F91DA
:1016D0002F910F900FBE0F901F901895DF93CF930F
:1016E000CDB7DEB72A970FB6F894DEBF0FBECDBFD9
:1016F00089836A838A81282F30E03A872987898500
:101700009A858130910509F466C029853A85223091
:10171000310509F4BBC089859A85009709F0D5C0C9
:101720008981282F30E038872F838F8198858130F9
:10173000910521F12F813885223031052CF48F81DC
:101740009885009761F0C1C02F813885223031051E
:1017500021F18F8198858330910571F1B6C0A5E59F
:10176000B0E0E5E5F0E080818E7F8C93A5E5B0E008
:10177000E5E5F0E080818D7F8C93A7C0A5E5B0E022
:10178000E5E5F0E0808181608C93A5E5B0E0E5E5DA
:10179000F0E080818D7F8C9398C0A5E5B0E0E5E511
:1017A000F0E080818E7F8C93A5E5B0E0E5E5F0E088
:1017B000808182608C9389C0A5E5B0E0E5E5F0E02A
:1017C000808181608C93A5E5B0E0E5E5F0E0808163
:1017D00082608C937AC08981282F30E03E832D83EC
:1017E0008D819E818130910521F12D813E812230B4
:1017F00031052CF48D819E81009761F066C02D81AA
:101800003E812230310521F18D819E818330910509
:1018100071F15BC0A5E5B0E0E5E5F0E080818B7F8C
:101820008C93A5E5B0E0E5E5F0E08081877F8C93BF
:101830004CC0A5E5B0E0E5E5F0E0808184608C93E4
:10184000A5E5B0E0E5E5F0E08081877F8C933DC0C1
:10185000A5E5B0E0E5E5F0E080818B7F8C93A5E520
:10186000B0E0E5E5F0E0808188608C932EC0A5E5CE
:10187000B0E0E5E5F0E0808184608C93A5E5B0E020
:10188000E5E5F0E0808188608C931FC08981282F76
:1018900030E03C832B838B819C818230910531F039
:1018A0002B813C812330310549F00FC0A4E5B0E025
:1018B000E4E5F0E080818F7B8C9307C0A4E5B0E085
:1018C000E4E5F0E0808180648C932A960FB6F8946A
:1018D000DEBF0FBECDBFCF91DF910895DF93CF93D1
:1018E00000D00F92CDB7DEB789838981282F30E0F1
:1018F0003B832A838A819B818130910589F02A81EB
:101900003B8122303105A1F08A819B810097B9F497
:10191000ABE5B0E0EBE5F0E0808180648C930FC034
:10192000ABE5B0E0EBE5F0E0808180688C9307C028
:10193000ABE5B0E0EBE5F0E0808180628C930F9046
:101940000F900F90CF91DF910895DF93CF9300D048
:101950000F92CDB7DEB789838981282F30E03B8392
:101960002A838A819B818130910589F02A813B817C
:1019700022303105A1F08A819B810097B9F4ABE553
:10198000B0E0EBE5F0E080818F7B8C930FC0ABE59E
:10199000B0E0EBE5F0E080818F778C9307C0ABE59A
:1019A000B0E0EBE5F0E080818F7D8C930F900F909D
:1019B0000F90CF91DF910895DF93CF9300D000D0A7
:1019C0000F92CDB7DEB789837B836A838981282F05
:1019D00030E03D832C838C819D8181309105A1F085
:1019E0002C813D8122303105D1F08C819D81009781
:1019F00001F58A819B810097E1F08A819B81909318
:101A000075008093740015C08A819B81009789F0CE
:101A10008A819B8190937700809376000AC08A81A7
:101A20009B81009731F08A819B819093790080930C
:101A300078000F900F900F900F900F90CF91DF9143
:101A40000895DF93CF93CDB7DEB7AFE5B0E0EFE514
:101A5000F0E0808180688C93CF91DF910895DF93CF
:101A6000CF93CDB7DEB7AFE5B0E0EFE5F0E0808132
:101A70008F778C93CF91DF910895DF93CF93CDB77C
:101A8000DEB781E060E040E00E94330681E061E083
:101A900040E00E94330681E062E040E00E943306AD
:101AA00080E064E040E00E94330680E065E040E0D2
:101AB0000E94330680E066E040E00E94330680E04A
:101AC00067E040E00E94330683E30E94760D82E3E4
:101AD0000E94760D88E20E94760D8EE00E94760DBF
:101AE00081E00E94760DCF91DF910895DF93CF932F
:101AF000CDB7DEB76D970FB6F894DEBF0FBECDBF82
:101B00008D8F81E060E040E00E945B0881E061E051
:101B100040E00E945B088D8D82958F70982F9170A8
:101B200080E064E0492F0E945B088D8D8295869548
:101B30008770982F917080E065E0492F0E945B08C4
:101B40008D8D8295869586958370982F917080E013
:101B500066E0492F0E945B088D8D982F991F992769
:101B6000991F80E067E0492F0E945B0881E062E0F6
:101B700041E00E945B0880E090E0A0E0B0E4898F43
:101B80009A8FAB8FBC8F698D7A8D8B8D9C8D20E069
:101B900030E04AEF54E40E941F02DC01CB018D8B40
:101BA0009E8BAF8BB88F6D897E898F89988D20E051
:101BB00030E040E85FE30E94790388232CF481E061
:101BC00090E09C8B8B8B3FC06D897E898F89988D2F
:101BD00020E03FEF4FE757E40E94190318164CF539
:101BE000698D7A8D8B8D9C8D20E030E040E251E450
:101BF0000E941F02DC01CB01BC01CD010E94490003
:101C0000DC01CB019C8B8B8B0FC088EC90E09A8B16
:101C1000898B89899A890197F1F79A8B898B8B89AE
:101C20009C8901979C8B8B8B8B899C89009769F78A
:101C300014C06D897E898F89988D0E944900DC01CE
:101C4000CB019C8B8B8B8B899C89988B8F878F8505
:101C500098890197F1F7988B8F8781E062E040E0E7
:101C60000E945B088D8D982F917080E064E0492F71
:101C70000E945B088D8D8695982F917080E065E0BD
:101C8000492F0E945B088D8D86958695982F9170BF
:101C900080E066E0492F0E945B088D8D86958695D1
:101CA0008695982F917080E067E0492F0E945B082D
:101CB00081E062E041E00E945B0880E090E0A0E00B
:101CC000B0E48B879C87AD87BE876B857C858D85CF
:101CD0009E8520E030E04AEF54E40E941F02DC01C0
:101CE000CB018F839887A987BA876F81788589858B
:101CF0009A8520E030E040E85FE30E947903882382
:101D00002CF481E090E09E838D833FC06F817885C5
:101D100089859A8520E03FEF4FE757E40E94190339
:101D200018164CF56B857C858D859E8520E030E00E
:101D300040E251E40E941F02DC01CB01BC01CD0155
:101D40000E944900DC01CB019E838D830FC088EC8B
:101D500090E09C838B838B819C810197F1F79C831E
:101D60008B838D819E8101979E838D838D819E8142
:101D7000009769F714C06F81788589859A850E94DC
:101D80004900DC01CB019E838D838D819E819A83E6
:101D9000898389819A810197F1F79A83898381E008
:101DA00062E040E00E945B086D960FB6F894DEBFDB
:101DB0000FBECDBFCF91DF910895DF93CF93CDB705
:101DC000DEB7E9970FB6F894DEBF0FBECDBF89AF7F
:101DD00081E060E041E00E945B0881E061E040E07A
:101DE0000E945B0889AD82958F70982F917080E07A
:101DF00064E0492F0E945B0889AD829586958770C3
:101E0000982F917080E065E0492F0E945B0889ADB2
:101E10008295869586958370982F917080E066E014
:101E2000492F0E945B0889AD982F991F9927991F08
:101E300080E067E0492F0E945B0881E062E041E0BA
:101E40000E945B0880E090E0A0E0B0E48DAB9EAB28
:101E5000AFABB8AF6DA97EA98FA998AD20E030E0F7
:101E60004AEF54E40E941F02DC01CB0189AB9AAB1C
:101E7000ABABBCAB69A97AA98BA99CA920E030E0E7
:101E800040E85FE30E94790388232CF481E090E02E
:101E900098AB8FA73FC069A97AA98BA99CA920E01C
:101EA0003FEF4FE757E40E94190318164CF56DA950
:101EB0007EA98FA998AD20E030E040E251E40E9475
:101EC0001F02DC01CB01BC01CD010E944900DC01F5
:101ED000CB0198AB8FA70FC088EC90E09EA78DA791
:101EE0008DA59EA50197F1F79EA78DA78FA598A90F
:101EF000019798AB8FA78FA598A9009769F714C091
:101F000069A97AA98BA99CA90E944900DC01CB018F
:101F100098AB8FA78FA598A99CA78BA78BA59CA5ED
:101F20000197F1F79CA78BA781E062E040E00E9457
:101F30005B0880E090E0A0E0B0E48FA398A7A9A799
:101F4000BAA76FA178A589A59AA520E030E04AEF4D
:101F500054E40E941F02DC01CB018BA39CA3ADA320
:101F6000BEA36BA17CA18DA19EA120E030E040E842
:101F70005FE30E94790388232CF481E090E09AA328
:101F800089A33FC06BA17CA18DA19EA120E03FEF62
:101F90004FE757E40E94190318164CF56FA178A576
:101FA00089A59AA520E030E040E251E40E941F029A
:101FB000DC01CB01BC01CD010E944900DC01CB0159
:101FC0009AA389A30FC088EC90E098A38F8F8F8D80
:101FD00098A10197F1F798A38F8F89A19AA10197F2
:101FE0009AA389A389A19AA1009769F714C06BA14C
:101FF0007CA18DA19EA10E944900DC01CB019AA386
:1020000089A389A19AA19E8F8D8F8D8D9E8D019719
:10201000F1F79E8F8D8F89AD982F917080E064E0ED
:10202000492F0E945B0889AD8695982F917080E0BA
:1020300065E0492F0E945B0889AD86958695982FAB
:10204000917080E066E0492F0E945B0889AD86951B
:1020500086958695982F917080E067E0492F0E94C1
:102060005B0881E062E041E00E945B0880E090E074
:10207000A0E0B0E4898F9A8FAB8FBC8F698D7A8D89
:102080008B8D9C8D20E030E04AEF54E40E941F02CB
:10209000DC01CB018D8B9E8BAF8BB88F6D897E89D8
:1020A0008F89988D20E030E040E85FE30E9479035B
:1020B00088232CF481E090E09C8B8B8B3FC06D8952
:1020C0007E898F89988D20E03FEF4FE757E40E948B
:1020D000190318164CF5698D7A8D8B8D9C8D20E037
:1020E00030E040E251E40E941F02DC01CB01BC0160
:1020F000CD010E944900DC01CB019C8B8B8B0FC072
:1021000088EC90E09A8B898B89899A890197F1F7FD
:102110009A8B898B8B899C8901979C8B8B8B8B8964
:102120009C89009769F714C06D897E898F89988D85
:102130000E944900DC01CB019C8B8B8B8B899C8995
:10214000988B8F878F8598890197F1F7988B8F8768
:1021500081E062E040E00E945B0880E090E0A0E067
:10216000B0E48B879C87AD87BE876B857C858D852A
:102170009E8520E030E04AEF54E40E941F02DC011B
:10218000CB018F839887A987BA876F8178858985E6
:102190009A8520E030E040E85FE30E9479038823DD
:1021A0002CF481E090E09E838D833FC06F81788521
:1021B00089859A8520E03FEF4FE757E40E94190395
:1021C00018164CF56B857C858D859E8520E030E06A
:1021D00040E251E40E941F02DC01CB01BC01CD01B1
:1021E0000E944900DC01CB019E838D830FC088ECE7
:1021F00090E09C838B838B819C810197F1F79C837A
:102200008B838D819E8101979E838D838D819E819D
:10221000009769F714C06F81788589859A850E9437
:102220004900DC01CB019E838D838D819E819A8341
:10223000898389819A810197F1F79A838983E99645
:102240000FB6F894DEBF0FBECDBFCF91DF910895DA
:10225000EF92FF920F931F93DF93CF93CDB7DEB72B
:1022600029970FB6F894DEBF0FBECDBF6E837F8374
:10227000888799871D8219821A821B821C828E810F
:102280009F81A885B985BB2394F48DE20E94DD0E61
:102290008E819F81A885B985B095A09590958195EF
:1022A0009F4FAF4FBF4F8E839F83A887B9878D8184
:1022B0008F5F8D8389819A81AB81BC812AE030E078
:1022C00040E050E0BC01CD010E94891C7B018C01E3
:1022D0008E819F81A885B9852AE030E040E050E0FA
:1022E000BC01CD010E94CA1CDC01CB018E0D9F1DDB
:1022F000A01FB11F89839A83AB83BC838E819F818A
:10230000A885B9852AE030E040E050E0BC01CD016D
:102310000E94CA1CDA01C9018E839F83A887B987EE
:102320008E819F81A885B9850097A105B10509F027
:10233000BECF26C089819A81AB81BC812AE030E082
:1023400040E050E0BC01CD010E94A81CDC01CB01A3
:10235000805D0E94DD0E89819A81AB81BC812AE07B
:1023600030E040E050E0BC01CD010E94A81CDA0141
:10237000C90189839A83AB83BC838D8181508D830E
:102380008D818823B9F629960FB6F894DEBF0FBE6B
:10239000CDBFCF91DF911F910F91FF90EF900895E6
:1023A000DF93CF9300D000D000D0CDB7DEB78D83C0
:1023B0006E8319821A821B821C828E81282F30E044
:1023C0008D81882F90E000249695879507949695A7
:1023D00087950794982F802D820F931FAA2797FD2A
:1023E000A095BA2F89839A83AB83BC838981805857
:1023F0000E94760D26960FB6F894DEBF0FBECDBFB5
:10240000CF91DF910895DF93CF9300D0CDB7DEB7A2
:102410009A8389830AC0E981FA8180810E94DD0E56
:1024200089819A8101969A838983E981FA818081E1
:10243000882389F70F900F90CF91DF910895DF9354
:10244000CF93CDB7DEB7A3E5B0E0E3E5F0E0808160
:102450008F7E8C93A3E5B0E0E3E5F0E080818062BD
:102460008C93A3E5B0E0E3E5F0E0808188608C9395
:10247000A3E5B0E0E3E5F0E0808180648C93A3E520
:10248000B0E0E3E5F0E08081887F8C93A3E5B0E0E5
:10249000E3E5F0E0808182608C93CF91DF91089535
:1024A000DF93CF93CDB7DEB7AFE4B0E0EFE4F0E079
:1024B00080818F7B8C93AFE4B0E0EFE4F0E080812B
:1024C0008F778C93AFE4B0E0EFE4F0E080818E7F13
:1024D0008C93AFE4B0E0EFE4F0E080818D7F8C93EB
:1024E000AEE4B0E0EEE4F0E08081877F8C93AEE470
:1024F000B0E0EEE4F0E080818F7E8C93AEE4B0E05B
:10250000EEE4F0E08081887F8C93AEE4B0E0EEE40E
:10251000F0E0808182608C93CF91DF910895DF930A
:10252000CF93CDB7DEB7A5E4B0E0E5E4F0E080817D
:102530008F7E8C93A5E4B0E0E5E4F0E080818062DA
:102540008C93A5E4B0E0E5E4F0E0808188608C93B2
:10255000A5E4B0E0E5E4F0E0808180648C93A3E53D
:10256000B0E0E3E5F0E08081887F8C93A3E5B0E004
:10257000E3E5F0E0808182608C93CF91DF91089554
:10258000DF93CF9300D0CDB7DEB79A838983E6E49B
:10259000F0E089819A81918380830F900F90CF9191
:1025A000DF910895DF93CF9300D0CDB7DEB79A8344
:1025B0008983EAE4F0E089819A81918380830F9096
:1025C0000F90CF91DF910895DF93CF930F92CDB706
:1025D000DEB78983ECE5F0E0898180830F90CF91AD
:1025E000DF910895DF93CF930F92CDB7DEB7898344
:1025F000E3E4F0E0898180830F90CF91DF9108952B
:10260000DF93CF930F92CDB7DEB78983898188237B
:1026100039F4EAE4F0E088EE93E09183808313C01C
:1026200089818A3539F4EAE4F0E08CED95E0918314
:10263000808309C08981843B31F4EAE4F0E080EDD5
:1026400097E0918380830F90CF91DF9108951F923F
:102650000F920FB60F9211242F933F934F935F93D6
:102660006F937F938F939F93AF93BF93EF93FF935A
:10267000DF93CF93CDB7DEB780917A0090917B0046
:10268000009729F0E0917A00F0917B000995CF91B5
:10269000DF91FF91EF91BF91AF919F918F917F91CA
:1026A0006F915F914F913F912F910F900FBE0F90BF
:1026B0001F9018951F920F920FB60F9211242F930F
:1026C0003F934F935F936F937F938F939F93AF93BA
:1026D000BF93EF93FF93DF93CF93CDB7DEB7809196
:1026E0007C0090917D00009729F0E0917C00F091B2
:1026F0007D000995CF91DF91FF91EF91BF91AF914F
:102700009F918F917F916F915F914F913F912F9109
:102710000F900FBE0F901F9018951F920F920FB63B
:102720000F9211242F933F934F935F936F937F9357
:102730008F939F93AF93BF93EF93FF93DF93CF93C9
:10274000CDB7DEB780917E0090917F00009729F091
:10275000E0917E00F0917F000995CF91DF91FF918C
:10276000EF91BF91AF919F918F917F916F915F9109
:102770004F913F912F910F900FBE0F901F90189582
:102780001F920F920FB60F9211242F933F934F93E6
:102790005F936F937F938F939F93AF93BF93EF93C9
:1027A000FF93DF93CF93CDB7DEB7809180009091F8
:1027B0008100009729F0E0918000F0918100099557
:1027C000CF91DF91FF91EF91BF91AF919F918F9149
:1027D0007F916F915F914F913F912F910F900FBE1D
:1027E0000F901F9018951F920F920FB60F92112401
:1027F0002F933F934F935F936F937F938F939F9309
:10280000AF93BF93EF93FF93DF93CF93CDB7DEB733
:102810008091820090918300009729F0E0918200DE
:10282000F09183000995CF91DF91FF91EF91BF91D6
:10283000AF919F918F917F916F915F914F913F9158
:102840002F910F900FBE0F901F9018951F920F920F
:102850000FB60F9211242F933F934F935F936F9373
:102860007F938F939F93AF93BF93EF93FF93DF93E8
:10287000CF93CDB7DEB7809184009091850000970B
:1028800029F0E0918400F09185000995CF91DF91C6
:10289000FF91EF91BF91AF919F918F917F916F9138
:1028A0005F914F913F912F910F900FBE0F901F900E
:1028B00018951F920F920FB60F9211242F933F93EA
:1028C0004F935F936F937F938F939F93AF93BF9338
:1028D000EF93FF93DF93CF93CDB7DEB78091860060
:1028E00090918700009729F0E0918600F091870091
:1028F0000995CF91DF91FF91EF91BF91AF919F919A
:102900008F917F916F915F914F913F912F910F9098
:102910000FBE0F901F901895DF93CF93CDB7DEB702
:102920002A970FB6F894DEBF0FBECDBF9A83898376
:10293000E981FA818081882309F48AC0E981FA81DA
:102940008081813079F4A3E5B0E0E3E5F0E08081B7
:10295000877F8C93A3E5B0E0E3E5F0E080818F7B97
:102960008C9313C0E981FA818081823071F4A3E5F0
:10297000B0E0E3E5F0E080818F7B8C93A3E5B0E0ED
:10298000E3E5F0E0808188608C93E981FA818281BF
:10299000282F30E03A87298789859A8581309105EB
:1029A00021F129853A85223031052CF489859A85D3
:1029B000009761F046C029853A852230310521F122
:1029C00089859A858330910571F13BC0A3E5B0E01C
:1029D000E3E5F0E080818F7E8C93A3E5B0E0E3E552
:1029E000F0E080818F7D8C932CC0A3E5B0E0E3E51F
:1029F000F0E0808180618C93A3E5B0E0E3E5F0E056
:102A000080818F7D8C931DC0A3E5B0E0E3E5F0E00D
:102A100080818F7E8C93A3E5B0E0E3E5F0E08081D8
:102A200080628C930EC0A3E5B0E0E3E5F0E0808126
:102A300080618C93A3E5B0E0E3E5F0E08081806203
:102A40008C93E981FA81918180E0692F0E94EB16D5
:102A5000E981FA818381882309F424C1E981FA811B
:102A600083818130E9F4AFE2B0E0EFE2F0E0808111
:102A70008E7F8C93AFE2B0E0EFE2F0E080818D7F5B
:102A80008C93AEE4B0E0EEE4F0E08081877F8C933D
:102A9000AEE4B0E0EEE4F0E080818F7E8C9343C042
:102AA000E981FA8180818230E9F4AFE2B0E0EFE2BF
:102AB000F0E080818E7F8C93AFE2B0E0EFE2F0E057
:102AC00080818D7F8C93AEE4B0E0EEE4F0E0808115
:102AD00088608C93AEE4B0E0EEE4F0E080818F7E1D
:102AE0008C9321C0E981FA8180818330E1F4AFE2E7
:102AF000B0E0EFE2F0E080818E7F8C93AFE2B0E057
:102B0000EFE2F0E0808182608C93AEE4B0E0EEE42E
:102B1000F0E08081877F8C93AEE4B0E0EEE4F0E0FB
:102B2000808180618C93E981FA818581282F30E052
:102B300038872F838F8198858130910521F12F81EE
:102B40003885223031052CF48F819885009761F00B
:102B500046C02F8138852230310521F18F8198853B
:102B60008330910571F13BC0AFE2B0E0EFE2F0E0FD
:102B700080818F7B8C93AFE2B0E0EFE2F0E0808168
:102B80008F778C932CC0AFE2B0E0EFE2F0E0808171
:102B900080648C93AFE2B0E0EFE2F0E080818F7769
:102BA0008C931DC0AFE2B0E0EFE2F0E080818F7B5C
:102BB0008C93AFE2B0E0EFE2F0E0808180688C932C
:102BC0000EC0AFE2B0E0EFE2F0E0808180648C9371
:102BD000AFE2B0E0EFE2F0E0808180688C93E981C1
:102BE000FA818681282F30E03E832D838D819E815E
:102BF0008130910521F12D813E81223031052CF467
:102C00008D819E81009761F046C02D813E812230EA
:102C1000310521F18D819E818330910571F13BC099
:102C2000AFE2B0E0EFE2F0E080818F7E8C93AFE224
:102C3000B0E0EFE2F0E080818F7D8C932CC0AFE2BA
:102C4000B0E0EFE2F0E0808180618C93AFE2B0E031
:102C5000EFE2F0E080818F7D8C931DC0AFE2B0E0A9
:102C6000EFE2F0E080818F7E8C93AFE2B0E0EFE2A4
:102C7000F0E0808180628C930EC0AFE2B0E0EFE2C2
:102C8000F0E0808180618C93AFE2B0E0EFE2F0E0B1
:102C9000808180628C93E981FA81948181E0692F3F
:102CA0000E94EB16E981FA818781882309F48AC0A2
:102CB000E981FA818781813079F4A5E4B0E0E5E427
:102CC000F0E08081877F8C93A5E4B0E0E5E4F0E05C
:102CD00080818F7B8C9313C0E981FA81808182305F
:102CE00071F4A5E4B0E0E5E4F0E080818F7B8C93A3
:102CF000A5E4B0E0E5E4F0E0808188608C93E981B0
:102D0000FA818185282F30E03C832B838B819C8145
:102D10008130910521F12B813C81223031052CF449
:102D20008B819C81009761F046C02B813C812230D1
:102D3000310521F18B819C818330910571F13BC07C
:102D4000A5E4B0E0E5E4F0E080818F7E8C93A5E41B
:102D5000B0E0E5E4F0E080818F7D8C932CC0A5E4A9
:102D6000B0E0E5E4F0E0808180618C93A5E4B0E020
:102D7000E5E4F0E080818F7D8C931DC0A5E4B0E098
:102D8000E5E4F0E080818F7E8C93A5E4B0E0E5E49B
:102D9000F0E0808180628C930EC0A5E4B0E0E5E4B1
:102DA000F0E0808180618C93A5E4B0E0E5E4F0E0A0
:102DB000808180628C93E981FA81908582E0692F1D
:102DC0000E94EB162A960FB6F894DEBF0FBECDBF59
:102DD000CF91DF910895DF93CF93CDB7DEB72A97D8
:102DE0000FB6F894DEBF0FBECDBF89836A83898199
:102DF000282F30E03A87298789859A858130910587
:102E000009F4FBC029853A852230310509F4E5C172
:102E100089859A85009709F0C8C28A81282F30E0F9
:102E200038872F838F8198858430910509F477C086
:102E30002F813885253031058CF48F81988581303C
:102E4000910509F440C02F8138852230310509F4FD
:102E500050C08F819885009701F1A7C22F813885D6
:102E60002730310509F487C08F8198858830910516
:102E70003CF42F8138852630310509F466C095C2AF
:102E80008F8198858830910509F48BC02F81388512
:102E90002930310509F49BC088C2A3E5B0E0E3E521
:102EA000F0E080818E7F8C93A3E5B0E0E3E5F0E075
:102EB00080818D7F8C93A3E5B0E0E3E5F0E0808135
:102EC0008B7F8C9372C2A3E5B0E0E3E5F0E08081F4
:102ED00081608C93A3E5B0E0E3E5F0E080818D7F35
:102EE0008C93A3E5B0E0E3E5F0E080818B7F8C93E9
:102EF0005CC2A3E5B0E0E3E5F0E080818E7F8C93D7
:102F0000A3E5B0E0E3E5F0E0808182608C93A3E587
:102F1000B0E0E3E5F0E080818B7F8C9346C2A3E5CF
:102F2000B0E0E3E5F0E0808181608C93A3E5B0E060
:102F3000E3E5F0E0808182608C93A3E5B0E0E3E517
:102F4000F0E080818B7F8C9330C2A5E4B0E0E5E4B3
:102F5000F0E080818E7F8C93A5E4B0E0E5E4F0E0C2
:102F600080818D7F8C93A5E4B0E0E5E4F0E0808182
:102F700084608C931AC2A3E5B0E0E3E5F0E08081C1
:102F800081608C93A3E5B0E0E3E5F0E080818D7F84
:102F90008C93A3E5B0E0E3E5F0E0808184608C935E
:102FA00004C2A3E5B0E0E3E5F0E080818E7F8C937E
:102FB000A3E5B0E0E3E5F0E0808182608C93A3E5D7
:102FC000B0E0E3E5F0E0808184608C93EEC1A3E59E
:102FD000B0E0E3E5F0E0808181608C93A3E5B0E0B0
:102FE000E3E5F0E0808182608C93A3E5B0E0E3E567
:102FF000F0E0808184608C93D8C18A81282F30E0F2
:103000003E832D838D819E818430910509F477C0A4
:103010002D813E81253031058CF48D819E8181305A
:10302000910509F440C02D813E812230310509F41B
:1030300050C08D819E81009701F1B7C12D813E81E5
:103040002730310509F487C08D819E818830910534
:103050003CF42D813E812630310509F466C0A5C1BE
:103060008D819E818830910509F48BC02D813E8130
:103070002930310509F49BC098C1AEE4B0E0EEE41C
:10308000F0E080818E7F8C93AEE4B0E0EEE4F0E07F
:1030900080818D7F8C93AEE4B0E0EEE4F0E080813F
:1030A0008B7F8C9382C1AEE4B0E0EEE4F0E08081EF
:1030B00081608C93AEE4B0E0EEE4F0E080818D7F3F
:1030C0008C93AEE4B0E0EEE4F0E080818B7F8C93F3
:1030D0006CC1AEE4B0E0EEE4F0E080818E7F8C93D2
:1030E000AEE4B0E0EEE4F0E0808182608C93AEE488
:1030F000B0E0EEE4F0E080818B7F8C9356C1AEE4CB
:10310000B0E0EEE4F0E0808181608C93AEE4B0E06A
:10311000EEE4F0E0808182608C93AEE4B0E0EEE417
:10312000F0E080818B7F8C9340C1AEE4B0E0EEE4B0
:10313000F0E080818E7F8C93AEE4B0E0EEE4F0E0CE
:1031400080818D7F8C93AEE4B0E0EEE4F0E080818E
:1031500084608C932AC1AEE4B0E0EEE4F0E08081BC
:1031600081608C93AEE4B0E0EEE4F0E080818D7F8E
:103170008C93AEE4B0E0EEE4F0E0808184608C9368
:1031800014C1AEE4B0E0EEE4F0E080818E7F8C9379
:10319000AEE4B0E0EEE4F0E0808182608C93AEE4D7
:1031A000B0E0EEE4F0E0808184608C93FEC0AEE499
:1031B000B0E0EEE4F0E0808181608C93AEE4B0E0BA
:1031C000EEE4F0E0808182608C93AEE4B0E0EEE467
:1031D000F0E0808184608C93E8C08A81282F30E001
:1031E0003C832B838B819C818330910509F470C0D3
:1031F0002B813C812430310584F48B819C8181308A
:103200009105D1F12B813C81223031050CF04AC06F
:103210008B819C810097D1F0C8C02B813C812530E7
:10322000310509F481C08B819C81853091050CF4B6
:1032300065C02B813C812630310509F48BC08B8120
:103240009C818730910509F49BC0AFC0A5E4B0E034
:10325000E5E4F0E080818E7F8C93A5E4B0E0E5E4C6
:10326000F0E080818D7F8C93A5E4B0E0E5E4F0E0B0
:1032700080818B7F8C9399C0A5E4B0E0E5E4F0E019
:10328000808181608C93A5E4B0E0E5E4F0E080818A
:103290008D7F8C93A5E4B0E0E5E4F0E080818B7F46
:1032A0008C9383C0A5E4B0E0E5E4F0E080818E7FFC
:1032B0008C93A5E4B0E0E5E4F0E0808182608C933B
:1032C000A5E4B0E0E5E4F0E080818B7F8C936DC0F5
:1032D000A5E4B0E0E5E4F0E0808181608C93A5E4B2
:1032E000B0E0E5E4F0E0808182608C93A5E4B0E09A
:1032F000E5E4F0E080818B7F8C9357C0A5E4B0E0DB
:10330000E5E4F0E080818E7F8C93A5E4B0E0E5E415
:10331000F0E080818D7F8C93A5E4B0E0E5E4F0E0FF
:10332000808184608C9341C0A5E4B0E0E5E4F0E0E6
:10333000808181608C93A5E4B0E0E5E4F0E08081D9
:103340008D7F8C93A5E4B0E0E5E4F0E080818460BB
:103350008C932BC0A5E4B0E0E5E4F0E080818E7FA3
:103360008C93A5E4B0E0E5E4F0E0808182608C938A
:10337000A5E4B0E0E5E4F0E0808184608C9315C0C2
:10338000A5E4B0E0E5E4F0E0808181608C93A5E401
:10339000B0E0E5E4F0E0808182608C93A5E4B0E0E9
:1033A000E5E4F0E0808184608C932A960FB6F8946F
:1033B000DEBF0FBECDBFCF91DF910895DF93CF93D6
:1033C00000D000D00F92CDB7DEB789837B836A83AC
:1033D0008981282F30E03D832C838C819D81813031
:1033E000910571F02C813D812230310581F08C8175
:1033F0009D81009781F4E2E5F0E08A8180830BC033
:10340000ECE4F0E08A819B819183808304C0E4E452
:10341000F0E08A8180830F900F900F900F900F90B3
:10342000CF91DF910895DF93CF9300D000D00F921A
:10343000CDB7DEB789837B836A838981282F30E00B
:103440003D832C838C819D8181309105D1F02C812D
:103450003D81223031052CF48C819D81009761F0F3
:1034600022C02C813D812230310591F08C819D81DB
:1034700083309105A1F017C0ECE5F0E08A818083EC
:1034800012C0EBE4F0E08A819B81918380830BC0C2
:10349000E8E4F0E08A819B819183808304C0E3E4C7
:1034A000F0E08A8180830F900F900F900F900F9023
:1034B000CF91DF910895DF93CF9300D000D00F928A
:1034C000CDB7DEB78B838B81282F30E03D832C83F3
:1034D0008C819D818130910589F02C813D81223044
:1034E000310599F08C819D810097B1F4E2E5F0E01F
:1034F0008081882F90E09A8389830EC0ECE4F0E00D
:10350000808191819A83898307C0E4E4F0E080811F
:10351000882F90E09A83898389819A810F900F90F8
:103520000F900F900F90CF91DF910895DF93CF937D
:1035300000D00F92CDB7DEB789838981282F30E084
:103540003B832A838A819B818330910509F444C09F
:103550002A813B81243031057CF48A819B81813032
:10356000910511F12A813B81223031052CF58A81A8
:103570009B81009789F047C02A813B812530310526
:1035800099F18A819B8185309105F4F02A813B81F4
:103590002630310589F137C0A9E5B0E0E9E5F0E072
:1035A000808181608C932FC0A9E5B0E0E9E5F0E06F
:1035B000808182608C9327C0A9E5B0E0E9E5F0E066
:1035C000808184608C931FC0A9E5B0E0E9E5F0E05C
:1035D000808188608C9317C0A9E5B0E0E9E5F0E050
:1035E000808180618C930FC0A9E5B0E0E9E5F0E04F
:1035F000808180648C9307C0A9E5B0E0E9E5F0E044
:10360000808180688C930F900F900F90CF91DF9105
:103610000895DF93CF9300D00F92CDB7DEB78983A3
:103620008981282F30E03B832A838A819B818330E4
:10363000910509F444C02A813B81243031057CF492
:103640008A819B818130910511F12A813B81223051
:1036500031052CF58A819B81009789F047C02A812A
:103660003B812530310599F18A819B818530910517
:10367000F4F02A813B812630310589F137C0A9E574
:10368000B0E0E9E5F0E080818E7F8C932FC0A9E562
:10369000B0E0E9E5F0E080818D7F8C9327C0A9E55B
:1036A000B0E0E9E5F0E080818B7F8C931FC0A9E555
:1036B000B0E0E9E5F0E08081877F8C9317C0A9E551
:1036C000B0E0E9E5F0E080818F7E8C930FC0A9E542
:1036D000B0E0E9E5F0E080818F7B8C9307C0A9E53D
:1036E000B0E0E9E5F0E080818F778C930F900F9048
:1036F0000F90CF91DF910895DF93CF9300D000D04A
:103700000F92CDB7DEB789837B836A838981282FA7
:1037100030E03D832C838C819D8183309105C9F1FC
:103720002C813D81243031057CF48C819D81813058
:10373000910509F12C813D81223031051CF58C81E8
:103740009D81009789F040C02C813D812530310555
:1037500071F18C819D818530910514F12C813D8121
:103760002630310559F130C08A819B8190937B00CE
:1037700080937A0029C08A819B8190937D008093F9
:103780007C0022C08A819B8190937F0080937E0081
:103790001BC08A819B81909381008093800014C01C
:1037A0008A819B8190938300809382000DC08A81DF
:1037B0009B81909385008093840006C08A819B81C1
:1037C00090938700809386000F900F900F900F903A
:1037D0000F90CF91DF910895DF93CF93CDB7DEB7F0
:1037E00081E063E040E00E94330683E062E042E073
:1037F0000E94330680E40E94E41280E00E946E0C76
:1038000082E060E00E946E0B21E43CE180E0B901BF
:103810000E94DC0C0E943D0D0E941F120E9450125B
:103820000E94210D80918800909189000097D1F32A
:1038300080918A0090918B000097A1F380E690E040
:103840000E9403128091880090918900CC01A0E031
:10385000B0E0BC01CD010E94281181E060E00E942F
:10386000D01188E690E00E94031280918A00909126
:103870008B00CC01A0E0B0E0BC01CD010E9428117A
:10388000FFCFDF93CF93CDB7DEB780918C008F5FF2
:1038900080938C0080918C00813051F481E060E055
:1038A00070E00E94DE1983E060E00E946E0B2EC083
:1038B00080918C00823061F481E00E945B1A9093C9
:1038C00089008093880082E060E00E946E0B1EC039
:1038D00080918C008330D1F481E00E945B1A909338
:1038E0008B0080938A0020918A0030918B00809118
:1038F000880090918900A901481B590BCA01909337
:103900008B0080938A0080E00E94A50CCF91DF910C
:103910000895629FD001739FF001829FE00DF11D19
:10392000649FE00DF11D929FF00D839FF00D749F39
:10393000F00D659FF00D9927729FB00DE11DF91FE5
:10394000639FB00DE11DF91FBD01CF011124089542
:10395000A1E21A2EAA1BBB1BFD010DC0AA1FBB1F93
:10396000EE1FFF1FA217B307E407F50720F0A21B05
:10397000B30BE40BF50B661F771F881F991F1A9472
:1039800069F760957095809590959B01AC01BD019C
:10399000CF01089597FB092E05260ED057FD04D0C0
:1039A000D7DF0AD0001C38F450954095309521950A
:1039B0003F4F4F4F5F4F0895F6F790958095709564
:1039C00061957F4F8F4F9F4F08952F923F924F9257
:1039D0005F926F927F928F929F92AF92BF92CF929F
:1039E000DF92EF92FF920F931F93CF93DF93CDB7A8
:1039F000DEB7CA1BDB0B0FB6F894DEBF0FBECDBF20
:103A000009942A88398848885F846E847D848C84F0
:103A10009B84AA84B984C884DF80EE80FD800C81F9
:103A20001B81AA81B981CE0FD11D0FB6F894DEBFDC
:0C3A30000FBECDBFED010895F894FFCF4C
:103A3C00506572696F643D004F6E3D0000000000E0
:043A4C000000000076
:00000001FF
